:020000040800F2
:10000000B8070020850C00089336000895360008D4
:10001000993600089D360008A1360008000000004F
:10002000000000000000000000000000A5360008ED
:10003000A736000800000000A93600089D0C000843
:100040009F0C00089F0C00089F0C00089F0C0008E4
:100050009F0C00089F0C00089F0C00089F0C0008D4
:100060009F0C00089F0C00089F0C00089F0C0008C4
:100070009F0C00089F0C00089F0C00089F0C0008B4
:100080009F0C00089F0C00089F0C00089F0C0008A4
:100090009F0C00089F0C00089F0C00089F0C000894
:1000A0009F0C00089F0C00089F0C00089F0C000884
:1000B0009F0C0008050500089F0C00089F0C000815
:1000C0009F0C00089F0C00089F0C00089F0C000864
:1000D0009F0C0008F90B00089F0C00089F0C0008FB
:1000E0009F0C00089F0C00089F0C00089F0C000844
:1000F0009F0C00089F0C00089F0C00089F0C000834
:100100009F0C00089F0C00089F0C00089F0C000823
:100110009F0C00089F0C00089F0C00089F0C000813
:100120009F0C00089F0C00089F0C00089F0C000803
:100130009F0C00089F0C00089F0C00089F0C0008F3
:100140009F0C00089F0C00089F0C00089F0C0008E3
:100150009F0C00089F0C00089F0C00089F0C0008D3
:100160009F0C00089F0C00089F0C00089F0C0008C3
:100170009F0C00089F0C00089F0C00089F0C0008B3
:100180009F0C00089F0C000800F002F800F03CF8FB
:100190000AA090E8000C82448344AAF10107DA45E2
:1001A00001D100F031F8AFF2090EBAE80F0013F0F8
:1001B000010F18BFFB1A43F0010318477C370000FA
:1001C0009C370000103A24BF78C878C1FAD852078B
:1001D00024BF30C830C144BF04680C6070470000C1
:1001E0000023002400250026103A28BF78C1FBD840
:1001F000520728BF30C148BF0B6070471FB503F0DE
:1002000095FB1FBD10B510BD03F05DFB1146FFF758
:10021000F5FF03F025FA03F07BFB03B4FFF7F2FFD1
:1002200003BC00F085FC00001CB50121102001F08A
:10023000DDF84FF60F70009001208DF804008DF866
:10024000070000208DF8060003208DF805006946A0
:10025000904800F02DFE4FF60F718E4800F0A4FE7E
:100260001CBD10B54FF60F718A4800F09DFE0221AB
:10027000884800F09BFE00208749086042F2602415
:1002800001E0601E84B2002CFBDC01208249086082
:1002900010BD10B54FF60F717E4800F085FE0821A5
:1002A0007C4800F083FE7D48007800F001007A4928
:1002B0001C39086079480078C0F340007849C1F8DB
:1002C000A40276480078C0F38000C1F8A802734801
:1002D0000078C0F3C000C1F8AC0270480078C0F3E9
:1002E0000010C1F8B0026D480078C0F34010C1F8AA
:1002F000B4026A480078C0F38010C1F8B8026748B9
:100300000078C009C1F8BC0246F2A81401E0601EE2
:1003100084B2002CFBDC4FF60F715E4800F044FE07
:1003200004215C4800F042FE5E48007800F00100C5
:1003300059491C3908605B480078C0F340005849AF
:10034000C1F8A40257480078C0F38000C1F8A802A1
:1003500054480078C0F3C000C1F8AC02514800789E
:10036000C0F30010C1F8B0024E480078C0F340104E
:10037000C1F8B4024B480078C0F38010C1F8B8024D
:1003800048480078C009C1F8BC0246F2A81401E050
:10039000601E84B2002CFBDCFFF763FF4FF60F7189
:1003A0003C4800F001FE02213A4800F0FFFD3E48C3
:1003B000007800F0010038491C3908603A4800789C
:1003C000C0F340003649C1F8A40237480078C0F3B2
:1003D0008000C1F8A80234480078C0F3C000C1F81A
:1003E000AC0231480078C0F30010C1F8B0022E48CA
:1003F0000078C0F34010C1F8B4022B480078C0F375
:100400008010C1F8B80228480078C009C1F8BC02C1
:1004100046F2A81401E0601E84B2002CFBDC4FF60B
:100420000F711C4800F0C0FD01211A4800F0BEFD0C
:100430001E48007800F0010017491C3908601B486D
:100440000078C0F340001649C1F8A40217480078AC
:10045000C0F38000C1F8A80214480078C0F3C000BF
:10046000C1F8AC0211480078C0F30010C1F8B00226
:100470000E480078C0F34010C1F8B4020B48007871
:10048000C0F38010C1F8B80208480078C009C1F86C
:10049000BC0210BD00100240BC024242110000200C
:1004A000000042421200002013000020140000202F
:1004B0007FB505460C460121022000F0E0FF002038
:1004C000ADF80C00ADF806000295ADF8044001A9A6
:1004D000294801F0B6FB01221146274802F052F8E4
:1004E0000121254801F036FC1D208DF80000012077
:1004F0008DF803008DF801008DF80200684600F0C9
:10050000E6FB7FBD10B501211B4802F052F801281F
:100510002DD11A49002002F005FB184880780A21E5
:1005200090FBF1F201FB12001549085C15490870B7
:10053000124880780A2190FBF1F01149085C1249B9
:1005400008700E4840780A2190FBF1F201FB12007E
:100550000B49085C0D490870084840780A2190FB57
:10056000F1F00749085C0A490870FFF792FE012183
:10057000014802F02FF810BD000400405400002094
:1005800000000020110000201200002013000020B5
:10059000140000202DE9F04104460D4616461F4682
:1005A000D048047045708670C7700146002002F084
:1005B0004FFABDE8F081F8B504460D4617461E46D1
:1005C0008DF802708DF801508DF800608DF80340B1
:1005D0006946002002F0DAFAF8BD3EB541F6FF7434
:1005E0000121080700F04BFF012002F08EFF0020E0
:1005F00002F08AFE512830D0012000F094FD04E082
:10060000601C84B20A2000F073FA412000F044FD1F
:100610000028F5D00CB901203EBD4FF4807000F0E9
:1006200083FE012000F09BFE7F200190FF200290BE
:1006300000200090684602F070F900231522114650
:100640001046FFF7A7FF0123112208211046FFF7EC
:10065000B2FF5121002002F04AFE0020DCE72DE924
:10066000F0414FF00008002400250026002700205C
:100670009D4908709D4908709D4908709D49087002
:1006800000219D4801F066FB4FF60F719B4800F07A
:100690008BFC0F21994800F089FC9948007800F004
:1006A00001009849086096480078C0F340009649D8
:1006B000C1F8A40292480078C0F38000C1F8A802F3
:1006C0008F480078C0F3C000C1F8AC028C480078B5
:1006D000C0F30010C1F8B00289480078C0F34010A0
:1006E000C1F8B40286480078C0F38010C1F8B8029F
:1006F00083480078C009C1F8BC028148005D7A498E
:1007000008707F48405D794908707D48805D784970
:1007100008707B48C05D77490870DEE000F021F981
:100720007A4908700846007802287DD1B8F1000F98
:1007300027D1601CC4B27248005D6B4908701EE08E
:10074000FFF7A7FD012000F0D3F900F00AF96F4987
:10075000087008460078022808D1601CC4B2092C31
:1007600000DD00246648005D5F4908706748007836
:10077000042803D065480078032800D100E0DFE7B3
:1007800000BFB8F1010F27D1681CC5B25C48405DBD
:10079000564908701EE0FFF77CFD012000F0A8F923
:1007A00000F0DFF85949087008460078022808D19F
:1007B000681CC5B2052D00DD00255148405D4B4940
:1007C000087052480078042803D050480078032865
:1007D00000D100E0DFE700BFB8F1020F29D1701CA3
:1007E000C6B24748805D4249087020E0FFF751FDDE
:1007F000012000F07DF900F0B4F844490870084683
:100800000078022808D1701CC6B2092E00DD00262F
:100810003B48805D364908703C480078042805D084
:100820003A480078032800E02EE000D100E0DDE740
:1008300000BFB8F1030F27D1781CC7B23048C05DA4
:100840002C4908701EE0FFF724FD012000F050F94C
:1008500000F087F82D49087008460078022808D172
:10086000781CC7B2052F00DD00272548C05D21494F
:10087000087026480078042803D02448007803280C
:1008800000D100E0DFE700BF20480078042808D14D
:1008900008F1010000F0FF08B8F1030F01DD4FF08F
:1008A00000081A480078032812D107EB870006EBEE
:1008B00040000C49487005EB850004EB400088704F
:1008C000002002F0C5F801210B4801F043FA05E0D1
:1008D000FFF7DFFC012000F00BF91FE700BFBDE8C8
:1008E000F0810000590000201100002012000020BB
:1008F00013000020140000200004004000100240FB
:1009000000000020A00242420000424258000020A5
:100910001CB50121042000F069FD4FF460500090E7
:1009200000208DF8040001208DF8070003208DF8C9
:10093000050069463A4800F0BBFA0121084600F07C
:1009400055FD0120009000208DF8040002208DF854
:10095000070003208DF805006946324800F0A8FA28
:100960001CBD10B54FF480512D4800F003FB88B139
:1009700001212C4800F0FEFA01280BD04FF4006151
:10098000274800F0F7FA28B14FF40051244800F04E
:10099000F1FA40BB2448007828B30A2000F0A8F8F8
:1009A0000020214908704FF400611D4800F0E2FA70
:1009B00008B9012010BD4FF48051194800F0DAFA4F
:1009C00008B90220F6E74FF40051154800F0D2FABA
:1009D00008B90320EEE70121124800F0CBFA012804
:1009E0001CD10420E6E74FF400610D4800F0C2FA84
:1009F000012813D101030A4800F0BCFA01280DD1E7
:100A00004103074800F0B6FA012807D10121054843
:100A100000F0B0FA10B90120034908700020C9E7BE
:100A200000080240000002405D00002010B50446AE
:100A30006FF0040000F098F9E11704EB5171C1F375
:100A4000C701394A11701046007800EB4001C1EB34
:100A5000C0104FF6FF7101EAC0003449088010BD94
:100A60000146314A12784A434FF0E0235A6100228E
:100A70009A611A46126942F001021A6100BF4FF0F2
:100A8000E022106900F001021AB100F48032002A5D
:100A9000F5D04FF0E022126922F001024FF0E0237E
:100AA0001A6100229A6170470146204A12884A431F
:100AB0004FF0E0235A6100229A611A46126942F00F
:100AC00001021A6100BF4FF0E022106900F001023C
:100AD0001AB100F48032002AF5D04FF0E0221269FA
:100AE00022F001024FF0E0231A6100229A61704760
:100AF00070B504464FF4077094FBF0F0C6B24FF4A3
:100B0000077094FBF0F100FB114085B205E04FF453
:100B10000770FFF7C9FF701EC6B2002EF7D115B1DE
:100B20002846FFF7C1FF70BD5E0000206000002076
:100B3000014600BF704700BF4E4A128802F04002D3
:100B4000002AF9D0C2B24B4B9A80704710B588B0DA
:100B500004460121084600F049FC0121102000F064
:100B60009FFC07220921444800F02DFA07220A21A0
:100B7000414800F028FA4FF4C060069002208DF83A
:100B80001C008DF81D0000208DF81E0001208DF83E
:100B90001F0006A9384800F08BF902940020ADF838
:100BA0000C00ADF80E00ADF81000ADF814000C20EC
:100BB000ADF8120002A92F4800F0D3FD01212D4805
:100BC00000F057FE40212B4800F03BFF012240F28D
:100BD0002551284800F003FF25208DF8040003204C
:100BE0008DF805008DF8060001208DF8070001A89A
:100BF00000F06DF808B010BD10B540F225511D4849
:100C000000F028FF10B31B4800F062FEC4B21B487E
:100C1000008800F40040C8B91848008800F48040FB
:100C200060B10A2C03D000201449088020E013484A
:100C3000008840F400401149088019E00D2C06D1CD
:100C40000E48008840F480400C49088010E00B48B2
:100C50000088C0F30D000A490C5408480088401C65
:100C60000649088008460088C72801DD0020088062
:100C700010BD00000010014000000240680000208C
:100C8000900000200948804709480047FEE7FEE73A
:100C9000FEE7FEE7FEE7FEE7FEE7FEE7FEE7FEE72C
:100CA00004480549054A064B70470000893700088B
:100CB00089010008B8010020B8070020B80300200F
:100CC000B803002032490143324A1160704770B5C1
:100CD000002100230F22C4781CB32E4C246804F496
:100CE000E064C4F5E064C4F30721C1F10404E3B295
:100CF0000A4144789C40E1B28478144021430C07B7
:100D0000210E254C05786155047804F01F05012457
:100D1000AC4005786D11AD0005F1E025C5F8004146
:100D200009E0047804F01F050124AC401B4D06784F
:100D3000761145F8264070BD194A0A400243154B0A
:100D40001B1F1A60704739B1124A121D1268024304
:100D5000104B1B1D1A6006E00E4A121D12688243DA
:100D60000C4B1B1D1A607047042808D14FF0E0217E
:100D7000096941F004014FF0E022116107E04FF0F2
:100D8000E021096921F004014FF0E0221161704770
:100D90000000FA050CED00E000E400E080E100E076
:100DA00080FFFF1F10B504469848844208D10121F6
:100DB000084600F086FB0021012000F082FB76E06F
:100DC0009348844208D10121022000F07AFB0021DF
:100DD000022000F076FB6AE08E48844208D10121AF
:100DE000042000F06EFB0021042000F06AFB5EE0AE
:100DF0008948844208D10121082000F062FB0021CB
:100E0000082000F05EFB52E08448844208D10121B2
:100E1000102000F056FB0021102000F052FB46E0AD
:100E20007F48844208D10121202000F04AFB0021A4
:100E3000202000F046FB3AE07A48844208D10121A4
:100E4000402000F03EFB0021402000F03AFB2EE065
:100E50007548844208D10121802000F032FB002136
:100E6000802000F02EFB22E07048844208D101214E
:100E7000801500F026FB0021A01500F022FB16E0F3
:100E80006B48844208D10121401500F01AFB002173
:100E9000601500F016FB0AE06648844207D1012184
:100EA000001500F00EFB0021201500F00AFB10BD1C
:100EB000F0B50A4600210023002400BF3DE00125D3
:100EC00005FA01F3156805EA03049C4234D105686C
:100ED0004F000326BE40B543056015794E00B5406E
:100EE0000668354305601579012D02D01579022D6C
:100EF00016D185684F000326BE40B54385605579FD
:100F00004E00B540866835438560456801268E40B1
:100F1000B5434560456896798E40B6B23543456025
:100F2000C5684F000326BE40B543C560D5794E0065
:100F3000B540C6683543C560491C1029BFD3F0BD14
:100F40004FF6FF7101600021017141718171C17122
:100F5000704708B54FF480320092009A0A4300921D
:100F6000009AC261C161009AC261C2690092C269FD
:100F7000009208BD0246002013690B400BB101200E
:100F800000E0002070470146086980B270470246C1
:100F9000002053690B400BB1012000E00020704796
:100FA0000146486980B270470183704741837047AA
:100FB0000AB1018300E04183704741617047426993
:100FC0004A4042617047F0B5002300244D07ED0E02
:100FD00002FA05F3CE1000F1200555F826504E0711
:100FE000F70E0F26BE40B543CF1000F1200646F89D
:100FF0002750CE1000F1200555F8265045EA03048D
:10100000CE1000F1200545F82640F0BD000002405A
:101010000004024000080240000C024000100240A0
:101020000014024000180240001C02400020024050
:101030000024024000280240F948006840F0010006
:10104000F74908600020F64908310860F448006854
:10105000F4490840F2490860F348091D0860F34864
:10106000EF4984310860F0481038091D0860EC48E9
:10107000006820F48020EA4908600020E8490C312B
:101080000860E7498C31086070470021E44A921CEF
:10109000117011460870704710B5014600220023F8
:1010A00000204A11012A02D1DD4C236808E0022AFF
:1010B00003D1DB4C7034236802E0D94C74342368CC
:1010C00001F01F02012494401C400CB1012000E0FB
:1010D000002010BD38B5002000900024002500BF7E
:1010E0003120FFF7D9FF05460098401C009000987A
:1010F000B0F5A04F01D0002DF2D03120FFF7CCFF8A
:1011000008B1012400E00024204638BD014600203B
:10111000C34A106820F0F80040EAC1001060704730
:10112000C349086070470021BD4A703211701170C8
:10113000012802D004280AD104E00121B84A703203
:10114000117005E00521B64A7032117000E000BF51
:1011500000BF7047B7490860704770B5049C41EA0A
:1011600082150126C6EB530645EA0645054345EAC6
:101170000465AB4E361D356070BDAD4908667047DD
:10118000820142EA0172A64B84331A607047A84973
:101190008866704710B5830143EA016343EA02732E
:1011A0009F4C8834236010BDA14908677047A0494F
:1011B000C864704702460020994B0833186820F035
:1011C000EC6042EA01031843954B083318607047FE
:1011D00002460020924B0833186820F0784042EA1B
:1011E000010318438E4B08331860704701460020F6
:1011F0008B4A0832106820F00300084310607047E3
:1012000087480830006800F00C0070470146002055
:10121000834A0832106820F0F000084310607047DD
:10122000014600207E4A0832106820F4E05008434E
:101230001060704701460020794A0832106820F497
:10124000604040EAC10010607047F0B50021002204
:101250000024022500260223714F08373F6807F05B
:101260000C0121B1042905D0082937D105E0724FBE
:10127000076036E0714F076033E0694F3F1D3F68FC
:10128000C7F38056664F3F1D3F6807F03F036EB1BE
:101290006A4FB7FBF3F7DFF888C10CF1040CDCF8F8
:1012A00000C0CCF3881C07FB0CF40CE0624FB7FBCA
:1012B000F3F7DFF86CC10CF1040CDCF800C0CCF3E0
:1012C000881C07FB0CF4564F3F1D3F68C7F30147CE
:1012D0007F1C7D00B4FBF5F7076002E0564F076006
:1012E00000BF00BF4E4F08373F6807F0F001090903
:1012F000534F7A5C0768D7404760494F08373F68CB
:1013000007F4E051890A4E4F7A5C4768D7408760FE
:10131000434F08373F6807F46041490B484F7A5CF8
:101320004768D740C760F0BD002100F44072B2F5B5
:10133000407F0AD13A4A0832116821F4F811414A33
:1013400002401143364A08321160354A7032126841
:10135000C0F30B031A43324B70331A6070473549A0
:10136000443908607047334940390860704736494E
:101370000860704701460020294A8C32106820F02E
:101380001F004A1E1043264A8C32106070470146E7
:101390000020234A8C32106820F4F8504A1E40EA9C
:1013A00002201F4A8C3210607047014600201C4A00
:1013B0008C32106820F440100843106070470146DA
:1013C0000020174A8C32106820F440000843106057
:1013D000704701460020124A8C32106820F44030D9
:1013E00008431060704719490860704739B10C4ACA
:1013F0003032126802430A4B30331A6006E0084A62
:10140000303212688243064B30331A607047F9B1AC
:10141000034A343212680243014B34331A601CE031
:1014200000380240FFFFF6EA1030002400300020B0
:1014300000004742800E47420024F40000127A0068
:101440006A000020FFFCFF0F5C014742E0114742A9
:101450008F4A126882438E4B1A60704739B18C4AAA
:10146000121D126802438A4B1B1D1A6006E0884A4F
:10147000121D12688243864B1B1D1A60704739B1DA
:10148000834A0C3212680243814B0C331A6006E027
:101490007F4A0C32126882437D4B0C331A607047CE
:1014A00039B17B4A103212680243794B10331A600B
:1014B00006E0774A103212688243754B10331A6087
:1014C000704739B1724A243A12680243704B243B88
:1014D0001A6006E06E4A243A126882436C4B243B41
:1014E0001A60704739B16A4A203A12680243684B61
:1014F000203B1A6006E0664A203A12688243644B39
:10150000203B1A60704739B1614A1C3A12680243A5
:101510005F4B1C3B1A6006E05D4A1C3A126882432E
:101520005B4B1C3B1A60704739B1594A143A126838
:101530000243574B143B1A6006E0554A143A1268AE
:101540008243534B143B1A60704739B1504A103AEA
:10155000126802434E4B103B1A6006E04C4A103AA8
:10156000126882434A4B103B1A60704739B1484AAF
:101570001C3212680243464B1C331A6006E0444A90
:101580001C3212688243424B1C331A60704739B1D7
:101590003F4A2032126802433D4B20331A6006E076
:1015A0003B4A203212688243394B20331A6070471D
:1015B00039B1374A243212680243354B24331A605A
:1015C00006E0334A243212688243314B24331A60D6
:1015D000704739B12E4A2C32126802432C4B2C33FF
:1015E0001A6006E02A4A2C3212688243284B2C33B8
:1015F0001A60704739B1264A303212680243244BD0
:1016000030331A6006E0224A303212688243204B9F
:1016100030331A607047012808D11D493C310968F0
:1016200041F008011A4A3C32116007E018493C3188
:10163000096821F00801164A3C321160704739B13F
:10164000134A273A12780243114B273B1A7006E0DF
:101650000F4A273A127882430D4B273B1A70704786
:101660000B484030006840F0807009494031086004
:10167000704701460020064A283A12680A400AB11B
:10168000012000E0002070470149263908707047AA
:101690003438024010B50446FA48844208D101218A
:1016A0001020FFF752FF00211020FFF74EFF57E0F8
:1016B000F548844209D101214804FFF735FF002194
:1016C0004FF40030FFF730FF4AE0F048844209D180
:1016D00001218804FFF728FF00214FF48020FFF745
:1016E00023FF3DE0EA48844209D10121C804FFF705
:1016F0001BFF00214FF40020FFF716FF30E0E54804
:10170000844209D101210805FFF70EFF00214FF4A3
:101710008010FFF709FF23E0DF48844208D1012150
:101720002020FFF712FF00212020FFF70EFF17E017
:10173000DA48844209D101218807FFF7F5FE00212C
:101740004FF08040FFF7F0FE0AE0D548844207D111
:1017500001214005FFF7E8FE00216005FFF7E4FEE8
:1017600010BD2DE9FF4705460E460024A14600BFE7
:10177000A046B08900B100BF2C8A24F44054F08800
:1017800004432C82AC8941F20C608443B0883189D7
:101790000843718908430443AC81AC8A24F4407443
:1017A000B0890443AC826846FFF74FFDB5488542D7
:1017B00002D0B948854202D1DDF80C9001E0DDF895
:1017C0000890A88900F4004040B109EBC90000EB83
:1017D000091031684900B0FBF1F707E009EBC900D7
:1017E00000EB091031688900B0FBF1F76420B7FB0A
:1017F000F0F004012009642101FB1078A88900F4AD
:10180000004040B1322000EBC800B0FBF1F000F026
:101810000700044308E0322000EB08106421B0FB0D
:10182000F1F000F00F0004432C81BDE8FF874FF476
:101830001651016000218180C18001810C2141810C
:1018400000218181704710B502460020108A20F4E3
:1018500070600B884C8823438C882343CC882343B7
:101860001843108210BD0021018041808180C18019
:10187000704721B1828942F40052828104E082895A
:101880004DF6FF731A4082817047028B02F47F424B
:101890000283028B0A430283704721B1828942F49A
:1018A0000042828103E08289C2F30E028281704786
:1018B00021B1828A42F40062828204E0828A4FF27D
:1018C000FF731A4082827047C1F30802828070471A
:1018D00001468888C0F308007047028A4FF6F0730B
:1018E0001A400282028A0A430282704721B1828929
:1018F00042F00202828104E082894FF6FD731A40B1
:101900008281704782894FF2FF731A4082818289F7
:101910000A4382817047028A4FF6DF731A400282BF
:10192000028A0A430282704721B1028A42F480424D
:10193000028204E0028A4BF6FF731A40028270476B
:10194000818941F001018181704721B1828A42F091
:101950000802828204E0828A4FF6F7731A4082827C
:101960007047028BD2B20283028B42EA01220283C9
:10197000704721B1828A42F02002828204E0828A8A
:101980004FF6DF731A408282704721B1828A42F09B
:101990001002828204E0828A4FF6EF731A4082823C
:1019A0007047828A4FF6FB731A408282828A0A430A
:1019B0008282704721B1828A42F00202828204E070
:1019C000828A4FF6FD731A40828270471AB1838A69
:1019D0000B43838202E0838A8B4383827047F0B596
:1019E0000346002400260025002040F66A17B9426D
:1019F00000D100BF1846C1F3421401F01F060127B1
:101A000007FA06F5012C01D10C3004E0022C01D1BB
:101A1000103000E014301AB107682F43076002E06D
:101A20000768AF430760F0BD02460020B1F5007FB4
:101A300000D100BF13880B400BB1012000E0002053
:101A4000704701F40072B2F5007F00D100BFCA43B5
:101A50000280704770B50246002400230025002054
:101A600040F66A16B14200D100BFC1F3421501F041
:101A70001F03012606FA03F3012D13D19689334083
:101A800017E0000000100140004400400048004002
:101A9000004C00400050004000140140007800401D
:101AA000007C0040022D02D1168A334001E0968A64
:101AB00033400C12012606FA04F41688344013B1A0
:101AC0000CB1012000E0002070BD10B50022002301
:101AD00040F66A14A14200D100BF0A1201249440CA
:101AE000A3B2DC43048010BD10B50446FE48844216
:101AF00008D101210846FFF728FD00210120FFF74A
:101B000024FD9DE0B4F1804F08D101210846FFF784
:101B10000BFD00210120FFF707FD91E0F34884420F
:101B200008D101210220FFF7FFFC00210220FFF76E
:101B3000FBFC85E0EE48844208D101210420FFF738
:101B4000F3FC00210420FFF7EFFC79E0E948844230
:101B500008D101210820FFF7E7FC00210820FFF74A
:101B6000E3FC6DE0E448844208D101211020FFF736
:101B7000DBFC00211020FFF7D7FC61E0DF48844246
:101B800008D101212020FFF7CFFC00212020FFF702
:101B9000CBFC55E0DA48844208D101210220FFF74E
:101BA000D4FC00210220FFF7D0FC49E0D548844254
:101BB00009D101210804FFF7C8FC00214FF480304F
:101BC000FFF7C3FC3CE0D048844209D1012148041E
:101BD000FFF7BBFC00214FF40030FFF7B6FC2FE00D
:101BE000CA48844209D101218804FFF7AEFC0021D4
:101BF0004FF48020FFF7A9FC22E0C548844208D1B9
:101C000001214020FFF790FC00214020FFF78CFCD1
:101C100016E0C048844208D101218020FFF784FCEF
:101C200000218020FFF780FC0AE0BB48844207D1F6
:101C300001218015FFF778FC0021A015FFF774FC47
:101C400010BD00220288A84B98420ED0AC4B98429F
:101C50000BD0B0F1804F08D0A44B984205D0A44BD4
:101C6000984202D0A34B984204D14FF68F731A408A
:101C70004B881A43A04B984207D0A04B984204D0FF
:101C80004FF6FF431A400B891A4302804B68C36228
:101C90000B880385944B984202D0994B984201D10E
:101CA0008B7A03860123838270474FF0FF314160B6
:101CB000002101800181418081727047018582820B
:101CC00070470A46002101884FF68F73194011436F
:101CD0000180704741627047C16270470146486A9F
:101CE00070470146088D704721B1028842F0020218
:101CF000028004E002884FF6FD731A4002807047AC
:101D000021B1028842F00402028004E002884FF60A
:101D1000FB731A400280704721B1028842F08002B2
:101D2000028004E002884FF67F731A4002807047F9
:101D300002884FF6F7731A40028002880A43028035
:101D4000704702884FF6FF431A40028002880A4318
:101D50000280704721B1028842F00102028004E053
:101D600002884FF6FE731A400280704770B5002457
:101D700000220023058C4FF6FE7635400584028C48
:101D80008388048B4FF68F752C40B51E2C400D8830
:101D90002C43751E2A408D892A434D882A43524D73
:101DA000A84202D0564DA84213D14FF6F7752A40EB
:101DB000CD892A434FF6FB752A408D882A434FF67A
:101DC000FF652B404FF6FF552B400D8A2B434D8A64
:101DD0002B43838004838D684563028470BD70B596
:101DE000002400220023058C4FF6EF763540058451
:101DF000028C8388048B48F6FF752C404FF6FF4514
:101E00002C400D884FF6FF7606EA05252C434FF649
:101E1000DF752A408D8906EA05152A434D8806EAB2
:101E200005152A43304DA84202D0354DA8421DD198
:101E30004FF67F752A40CD894FF6FF7606EA0515E5
:101E40002A434FF6BF752A408D8806EA05152A43B6
:101E50004FF6FF352B404FF2FF752B400D8A06EAF7
:101E600085052B434D8A06EA85052B438380048331
:101E70008D688563028470BD70B500240022002344
:101E8000058C4FF6FF6635400584028C8388848B71
:101E90004FF68F752C404FF6FC752C400D882C4367
:101EA0004FF6FF552A408D894FF6FF7606EA052545
:101EB0002A434D8806EA05252A430B4DA84202D045
:101EC0000F4DA84238D14FF2FF752A40CD894FF609
:101ED000FF7606EA05252A434FF6FF352A408D880E
:101EE00006EA05252A4319E00000014000040040ED
:101EF00000080040000C00400010004000140040AA
:101F000000040140004001400044014000480140FD
:101F100000180040001C0040002000404EF6FF75F5
:101F20002B404DF6FF752B400D8A06EA05152B4315
:101F30004D8A06EA05152B43838084838D68C5632B
:101F4000028470BD70B5002200230024058C4EF67B
:101F5000FF7635400584038C8488828B48F6FF75B4
:101F60002A404FF6FF452A400D884FF6FF7606EAD5
:101F700005252A434DF6FF752B408D8906EA053568
:101F80002B434D8806EA05352B43FE4DA84202D06F
:101F9000FD4DA84208D14BF6FF752C400D8A4FF637
:101FA000FF7606EA85152C43848082838D6805645C
:101FB000038470BD00210180418081808160818126
:101FC000C18101824182704770B503460020002420
:101FD0001846183001258D40ACB21D8CA5431D84D8
:101FE00009B108290AD100EB610005684FF68F7628
:101FF000354005600568154305600FE00D1FC5F30A
:102000004E052844056848F6FF76354005600568AA
:102010004FF6FF7606EA02263543056070BD416340
:10202000704781637047C1637047016470470A4617
:102030000021018B4FF68F731940114301837047C4
:102040000A460021018B48F6FF7319404FF6FF73D3
:1020500003EA02231943018370470A460021818B5A
:102060004FF68F7319401143818370470A46002150
:10207000818B48F6FF7319404FF6FF7303EA022382
:102080001943818370470A460021018B4FF6F7738D
:1020900019401143018370470A460021018B4FF21A
:1020A000FF7319404FF6FF7303EA022319430183BC
:1020B00070470A460021818B4FF6F7731940114390
:1020C000818370470A460021818B4FF2FF731940CC
:1020D0004FF6FF7303EA02231943818370470A46D0
:1020E0000021018B4FF6FB731940114301837047A8
:1020F0000A460021018B4FF6FF3319404FF6FF735C
:1021000003EA02231943018370470A460021818BA9
:102110004FF6FB7319401143818370470A46002133
:10212000818B4FF6FF3319404FF6FF7303EA02230A
:102130001943818370470A460021018B4FF67F7354
:1021400019401143018370470A460021018BC1F3F6
:102150000E014FF6FF7303EA022319430183704710
:102160000A460021818B4FF67F731940114381830A
:1021700070470A460021818BC1F30E014FF6FF73B1
:1021800003EA02231943818370470A460021018C28
:102190004FF6FD7319401143018470470A46002130
:1021A000018C4FF6F77319401143018470470A46BA
:1021B0000021018C4FF6DF7319404FF6FF7303EADD
:1021C00002131943018470470A460021018C4FF61F
:1021D0007F7319404FF6FF7303EA0213194301841A
:1021E00070470A460021018C4FF6FF5319404FF605
:1021F000FF7303EA02231943018470470A46002152
:10220000018C4FF2FF7319404FF6FF7303EA02236C
:102210001943018470470A460021018C4DF6FF7373
:1022200019404FF6FF7303EA0233194301847047E4
:1022300030B5002301248C40A3B2048C9C43048459
:10224000048C02FA01F5ADB22C43048430BD30B5E4
:10225000002304248C40A3B2048C9C430484048C8B
:1022600002FA01F5ADB22C43048430BD828B4FF2EB
:10227000FF331A408283828B4FF6FF7303EA0123F8
:102280001A4382837047F0B50C46154600210022A0
:102290000026078C4EF6FF7C07EA0C070784818B2B
:1022A000028C4FF6FF7707EA043640F6FF473940C5
:1022B0004FF6FF7707EA052739434FF6FF7707EA1E
:1022C0000337394345F6FF773A4046F480573A439F
:1022D00081830284F0BD828B4FF6F3731A408283B0
:1022E000828B0A4382837047F0B50C461546002165
:1022F00000220026078C4FF6FF6C07EA0C070784C4
:10230000818B028C4FF6FF7707EA04264FF60C7795
:1023100039404FF6FF7707EA03172F4339434FF24F
:10232000FF573A4046F480773A4381830284F0BDF8
:10233000028B4FF2FF331A400283028B4FF6FF737A
:1023400003EA01231A4302837047F0B50C46154691
:10235000002100220026078C4FF6EF7C07EA0C07CD
:102360000784018B028C4FF6FF7707EA041640F6CC
:10237000FF4739404FF6FF7707EA033739434FF6F7
:10238000FF7703E0000001400004014007EA052751
:1023900039434FF65F773A4046F010073A430183DE
:1023A0000284F0BD028B4FF6F3731A400283028B56
:1023B0000A4302837047F0B50C46154600210022FF
:1023C000068C4FF6FE773E400684018B028C4FF65A
:1023D0000C7631407E1C06EA03162E4331434FF63D
:1023E000F576324044F00106324301830284F0BDA9
:1023F00070B505460C46208850B92389A2886188AB
:102400002846FFF7D8FFE1882846FFF7CBFF25E0F5
:10241000208804280AD12389A28861882846FFF7EA
:1024200094FFE1882846FFF783FF17E020880828FB
:102430000AD12389A28861882846FFF755FFE188E1
:102440002846FFF748FF09E02389A28861882846CB
:10245000FFF719FFE1882846FFF708FF70BD00214C
:1024600001804180012181800021C180018170476C
:102470002DE9F04105460C4600260127608808B981
:10248000022600E00026A088012801D1022700E0F2
:1024900001272088A0B92389A28861882846FFF7F0
:1024A0008AFFE1882846FFF77DFF23893A463146B7
:1024B0002846FFF74AFFE1882846FFF739FF13E077
:1024C0002389A28861882846FFF73FFFE1882846D4
:1024D000FFF72EFF23893A4631462846FFF76BFF68
:1024E000E1882846FFF75EFFBDE8F0810146486BB2
:1024F00070470146886B70470146C86B70470146BC
:10250000086C70470A884B881A438B881A43CB881B
:102510001A430B891A434B891A438B891A43A0F833
:10252000442070470021018041808180C180018169
:1025300041818181704731B1B0F8442042F40042BA
:10254000A0F8442005E0B0F84420C2F30E02A0F841
:102550004420704721B1828842F00402828004E066
:1025600082884FF6FB731A408280704721B18288BF
:1025700042F00102828004E082884FF6FE731A4026
:10258000828070471AB183890B43838102E083897B
:102590008B43838170478182704702460020138AF3
:1025A0000B400BB1012000E000207047CA430282BB
:1025B000704730B50246002000230024158A05EA42
:1025C0000103958905EA010413B10CB1012000E073
:1025D000002030BDCA430282704741EA0203A0F8DE
:1025E000483070471AB183890B43838102E08389A5
:1025F0008B438381704721B1828842F00802828038
:1026000004E082884FF6F7731A4082807047018990
:102610004FF6F8721140018170470A460021018986
:102620004FF68F73194011430181704730B504464E
:102630000D4629462046FFF7F0FF208940F00700AD
:10264000208130BD2DE9F04104460D4616461F4657
:10265000602D06D13B46012231462046FFF775FE2C
:1026600005E03B46012231462046FFF7A4FE2946FD
:102670002046FFF7D2FF208940F007002081BDE807
:10268000F08130B50C4600210189C9B24FF6FF75C3
:1026900005EA0325154325432943018130BD2DE972
:1026A000F04105460E4617469846002443463A46F2
:1026B00031462846FFF7E5FF2C894FF6F8700440B5
:1026C00044F007044FF68F70044044F070042C81EE
:1026D000BDE8F081F0B504460D4616461F463B4660
:1026E000324629462046FFF7CCFF208940F480403F
:1026F0002081F0BD82884FF68F731A4082808288D5
:102700000A438280704702894FF6F8731A400281AB
:1027100002890A430281704702894FF67F731A408B
:10272000028102890A4302817047F0B50C461546C2
:102730001E460021002200230189028B038C4FF6E4
:10274000F877394021434FF6FC473A4040F20117F1
:102750003A434FF6DD773B404FF6FF7707EA06171F
:102760002F433B43018102830384F0BD21B1828862
:1027700042F08002828004E082884FF67F731A4024
:1027800082807047A0F850107047000008B5002202
:10279000009200200021CA22F94B1A6053221A60CD
:1027A000F74A183A126822F0A002F54B183B1A605B
:1027B00000BFF34A183A126802F02001009A521C36
:1027C0000092009AB2F5003F01D00029F1D0EC4A06
:1027D000183A126802F020020AB1012000E000203D
:1027E000FF22E74B1A6008BD08B5002200920020C6
:1027F0000021E34A183A126802F04002E2B9421E90
:10280000DF4B183B1A6000BFDD4A183A126802F02D
:102810004001009A521C0092009AB2F5803F01D00C
:102820000029F1D0D64A183A126802F040020AB1E3
:10283000012002E0002000E0012008BD38B50020A2
:10284000009000240025CA20CD490860532008606C
:10285000FFF7CAFF00B952E00020C94924390860D7
:1028600042F20110091D0860081D006800F0070011
:10287000091D086000BFC2481838006800F0040451
:102880000098401C00900098B0F5803F01D0002CCB
:10289000F1D0BB481838006800F0040008B90025E2
:1028A0002DE0B7481C3800680020B5491C39086085
:1028B0004FF6FF70B24910390860B248091F08602E
:1028C0000020AF490C390860091D0860091D086027
:1028D000AB4908310860AA4918310860A84920317D
:1028E0000860091D0860A64918390860A4491C3110
:1028F0000860FFF74BFF08B9002500E00125FF2025
:102900009F490860284638BD9D481838006820F067
:1029100080009B4918390860704730B5044600258F
:10292000CA209749086053200860FFF75DFF00B98F
:102930001DE093481C38006820F0400090491C3985
:10294000086008460068216808438D491C39086002
:102950008B491439A068086008460068A18840EADD
:102960000140874914390860FFF7CEFF0125FF2099
:1029700083490860284630BD002101607F21416005
:10298000FF218160704718B1FF217D4A116004E08A
:10299000CA217B4A116053211160704730B504464B
:1029A0000025CA207649086053200860FFF71CFF05
:1029B00000B914E044B172481C38006840F01000BF
:1029C0006F491C39086007E06D481C38006820F02A
:1029D00010006B491C390860FFF796FF0125FF20A6
:1029E00067490860284630BDCA21654A11605321F5
:1029F000116040B162491C39096841F02001604A08
:102A00001C3A116007E05E491C39096801F0DF01DA
:102A10005B4A1C3A1160FF21594A11607047014618
:102A2000002204E0501CC2B2A1F10A00C1B20A297E
:102A3000F8DA100741EA10607047014600BF080944
:102A400000EB8000420001F00F001044C0B270475C
:102A50002DE9F04105460C460026002755B94848A7
:102A60001C38006800F0400000B102E00020E07077
:102A700000BF0EE042481C38006800F0400020B162
:102A80002078FFF7DAFF064602E00020E07000BF82
:102A900000BF55B120780004617840EA0120A17898
:102AA0000843E17840EA014611E02078FFF7B7FFDC
:102AB0004FEA00486078FFF7B2FF48EA0028A078A4
:102AC000FFF7ADFF48EA0008E07848EA0046CA2070
:102AD0002B49086053200860FFF786FE08B90027DD
:102AE00014E029483040264924390860FFF70CFFDC
:102AF00023481C38006800F0200030B9FFF746FE7C
:102B000008B9002702E0012700E00127FF201C4947
:102B100008603846BDE8F0810021C1700170417045
:102B20008170704770B506460C460025144824385D
:102B30000068154900EA0105C5F305402070C5F39A
:102B40000620607005F07F00A07005F48000000C86
:102B5000E0705EB92078FFF770FF20706078FFF7B3
:102B60006CFF6070A078FFF768FFA07070BD002058
:102B70000349091D086802492039096870470000A7
:102B800024280040FF007F007F7F7F002DE9F04177
:102B900005460C46002600274DB9607800F010006D
:102BA000102804D1607820F010000A30607005B958
:102BB00008E06078FFF741FF0646A078FFF73DFF89
:102BC000064600BF55B1E0780004617840EA012074
:102BD000A1780843217840EA413611E0E078FFF718
:102BE0001EFF4FEA00486078FFF719FF48EA002807
:102BF000A078FFF714FF48EA0008207848EA40363A
:102C0000CA20FE49086053200860FFF7EDFD08B9AF
:102C1000002714E0FA483040F84920390860FFF7EF
:102C200073FEF6481C38006800F0200030B9FFF74A
:102C3000ADFD08B9002702E0012700E00127FF20D1
:102C4000EE4908603846BDE8F081012101708170CD
:102C500041700021C170704770B506460C460025D2
:102C6000E64820380068E64900EA0105280CE070D3
:102C7000C5F30420607005F03F00A070C5F342303A
:102C800020705EB9E078FFF7D8FEE0706078FFF75B
:102C9000D4FE6070A078FFF7D0FEA07070BD2DE963
:102CA000F04105460E46144600276DB9D3481C383E
:102CB000006800F0400000B102E00020E07000BFBA
:102CC000A06800B91AE019E0CC481C38006800F090
:102CD000400020B12078FFF7B0FE074602E0002058
:102CE000E07000BFA06820B9207BFFF7A6FE074672
:102CF00004E0207BFFF7A1FE074600BF95B12078D6
:102D00000004617840EA0120A1780843E17840EAB4
:102D10000140217B40EA0160A1680843616840EA04
:102D200001071BE02078FFF77AFE4FEA0048607841
:102D3000FFF775FE48EA0028A078FFF770FE48EA22
:102D40000008E07848EA0048207BFFF768FE48EA80
:102D50000060A1680843616840EA0107CA20A749EA
:102D6000086053200860B6F5807F03D1A348083877
:102D7000076002E0A148001F0760FF209F4908602C
:102D8000BDE8F0810021C1700170417081708160E7
:102D9000012101730021416070472DE9F041064691
:102DA0000F4614460025B7F5807F03D193480838B5
:102DB000056802E09148001F0568C5F305402070D2
:102DC000C5F30620607005F07F00A07005F4800058
:102DD000000CE070C5F30560207305F08040A06032
:102DE00005F0803060607EB92078FFF726FE207005
:102DF0006078FFF722FE6070A078FFF71EFEA070DB
:102E0000207BFFF71AFE2073BDE8F08138B502463B
:102E10000024009400230020CA24784D2C60532401
:102E20002C6041B1754C1C3C24681443734D1C3D0F
:102E30002C6001201EE0714C1C3C246894436F4DB3
:102E40001C3D2C6000BF6D4C183C246804EA122322
:102E5000009C641C0094009CB4F5803F01D0002BC2
:102E6000F1D0664C183C246804EA12240CB9002006
:102E700000E00120FF24614D2C6038BD30B50023F7
:102E8000CA245E4D2C6053242C6041EA0203B0F545
:102E9000807F03D1594C2034236002E0574C243406
:102EA0002360FF24554D2C6030BD01460020B1F554
:102EB000807F05D1514A20321268C2F30E0004E02F
:102EC0004E4A24321268C2F30E007047CA214B4AA0
:102ED00011605321116049491C39096821F007012B
:102EE000464A1C3A11601146096801431160FF21EE
:102EF000424A11607047CA21404A11605321116053
:102F00003E4910390860FF21116070473B48103876
:102F1000006880B2704718B5014600230093002274
:102F20000020CA23354C23605323236049B1334B1F
:102F30001C3B1B6843F48063304C1C3C2360012025
:102F40001FE02E4B1C3B1B6823F480632B4C1C3C66
:102F5000236000BF294B183B1B6803F00402009B51
:102F60005B1C0093009BB3F5803F01D0002AF1D099
:102F7000224B183B1B6803F004030BB9002000E050
:102F80000120FF231D4C236018BDCA221B4B1A6071
:102F900053221A60194A1C3A126822F48022174BF5
:102FA0001C3B1A601A46126840EA01031A43134B8D
:102FB0001C3B1A60FF22114B1A6070470F481C38E7
:102FC000006800F480207047CA220C4B1A6053221C
:102FD0001A600A4A1C3A126822F4E002074B1C3BB2
:102FE0001A601A46126840EA01031A43034B1C3B5D
:102FF0001A60FF22014B1A6070470000242800402D
:103000003FFFFF0070B504460D460026CA20F64972
:10301000086053200860FFF7E7FB00B907E044EAC7
:103020000500F1490C390860FFF76EFC0126FF200E
:10303000ED490860304670BD30B504460025CA2011
:10304000E949086053200860FFF7CEFB00B914E09F
:1030500044B1E5481C38006840F08000E2491C3962
:10306000086007E0E0481C38006820F08000DE4976
:103070001C390860FFF748FC0125FF20DA49086089
:10308000284630BDCA21D84A11605321116040B191
:10309000D5491C39096841F40001D34A1C3A116032
:1030A00007E0D1491C39096821F40001CE4A1C3AD5
:1030B0001160FF21CC4A11607047CA21CA4A1160D1
:1030C00053211160C8491C39096821F40021C64AFE
:1030D0001C3A11601146096801431160FF21C24A80
:1030E0001160704770B5034600200024CA25BE4E0B
:1030F000356053253560BC4D183D2D6805F480358D
:1031000055B100E0641CB84D183D2D6805F48035BC
:1031100015B1B4F5003FF5D1B34D183D2D6805F458
:1031200080353DB943EA01051543AF4E1836356089
:10313000012000E00020FF25AB4E356070BD10B5CA
:103140000A460021A84B1C3B1B6840F6080423EAF2
:1031500004011AB140F40063194300E00143CA239B
:10316000A14C2360532323609F4B1C3B1960FF231A
:10317000236010BD2DE9F04180460C46154600261F
:10318000002799480C300068984900EA01069648E3
:1031900010300068964900EA0107C6F30540207028
:1031A000C6F30620607006F07F00A07006F4800071
:1031B000000CE0700020E870C7F30420687007F08E
:1031C0003F00A870C7F342302870B8F1000F17D144
:1031D0002078FFF732FC20706078FFF72EFC6070DB
:1031E000A078FFF72AFCA0706878FFF726FC6870CB
:1031F000A878FFF722FCA8702878FFF71EFC28703B
:10320000BDE8F081784814300068704741B9764ACB
:103210001C32126822EA4002734B1C331A6007E02A
:10322000714A1C32126842EA40026F4B1C331A602A
:10323000704739B16C4A1C32126802436A4B1C3326
:103240001A6006E0684A1C3212688243664B1C33DF
:103250001A60704764491C31096821F4C051624A00
:103260001C321160114609680143116070475E49C4
:103270001C31096821F4E0615B4A1C32116011467F
:10328000096801431160704757491C31096821F4EE
:10329000C041554A1C321160114609680143116052
:1032A000704740B150491C31096841F080014E4AD5
:1032B0001C32116007E04C491C31096821F0800183
:1032C000494A1C321160704740B147491C310968B6
:1032D00021F40041444A1C32116007E042491C318C
:1032E000096841F40041404A1C321160704708B53A
:1032F000002200923C4A2C320092009A02EB80029B
:103300000092009A116008BD08B5014600200090A7
:1033100035482C300090009800EB81000090009818
:10332000006808BD30491C31096821F480312E4AFB
:103330001C321160114609680143116070472A4927
:103340001C31096821F40031274A1C3211601146F2
:10335000096801431160704723491C31096821F451
:103360008021214A1C321160114609680143116015
:103370007047F0B504460D4600270026CA201A49BA
:1033800008605320086018481838006800F00800EA
:1033900050B100E0761C14481838006800F00800AE
:1033A00010B1B6F5805FF5D10F481838006800F00D
:1033B000080098B90C481C38006800F0100058B993
:1033C00045EA0400084908310860FFF7DFF908B949
:1033D000002704E0012702E0002700E00027FF208B
:1033E000014908603846F0BD242800407F7F7F00F7
:1033F0003FFFFF00CA223D4B1A6053221A6091B171
:103400003A4A1C3A126820F004031A43374B1C3B1B
:103410001A60364A1C32126800F004031A43334B18
:103420001C331A6011E0314A1C3A126820F0040380
:103430009A432E4B1C3B1A602C4A1C32126800F037
:1034400004039A43294B1C331A60FF22274B1A604E
:10345000704710B5014600200022244B183B1B6822
:10346000234C03EA040202EA01030BB1012000E04D
:10347000002010BD81B241F080011C4A183A126848
:1034800002F0800262EA0101184A183A116070479E
:1034900030B50146002000220023144C1C3424685F
:1034A00004F00402114C1C3C24680C4002EAD135A3
:1034B00044EA05030D4C183C246804EA11121BB1C0
:1034C00094B20CB1012000E0002030BD00210109C0
:1034D0008AB242F08002054B183B1B6803F0800360
:1034E00063EA0202014B183B1A607047242800402F
:1034F0007F3F010010B501210807FEF715F80021F4
:103500004FF08050FEF710F810BD52490862704726
:1035100001460020504A106820F0E0000843106087
:1035200070474C49086170474A49A03108607047AC
:103530004849A4310860704701460020464A106897
:1035400020F44040084310607047424908647047C7
:1035500040494864704730B13F49096841F440210F
:103560003D4A116005E03C49096821F440213A4A8E
:103570001160704718B10121364AD16202E0002182
:10358000344AD162704718B10121324A916202E097
:103590000021304A916270472E494862704710B549
:1035A000024600202C4B186840F603439843104312
:1035B000294B1860294B1B6843F00403274C2360F8
:1035C000012901D130BF00E020BF244B1B6823F04C
:1035D0000403224C236010BD10B5024600201E4B90
:1035E000186840F60343984310431B4B18601B4B6D
:1035F0001B6843F00403194C2360012901D130BF3B
:1036000000E020BF154B1B6823F00403134C23601C
:1036100010BD1148006840F002000F4908600F48D3
:10362000006840F004000D49086000BF00BF30BFD3
:10363000704701460020084A52680A400AB101203A
:1036400000E0002070470449096841EA8001024A0D
:103650001160704700000E420070004010ED00E065
:10366000A820FDF7E3F9FCF7DFFDFDF751F942F281
:10367000CF011320FCF71CFFFCF7AFFF08E0FDF7BC
:1036800070F9012801D1FCF7EAFF0520FDF730FAB7
:10369000F5E7704700BFFEE700BFFEE700BFFEE7AB
:1036A00000BFFEE770477047704700000CB5002070
:1036B000019000907648006840F4803074490860BA
:1036C00000BF7348006800F4003000900198401C6F
:1036D0000190009818B90198B0F5A04FF1D16C484D
:1036E000006800F4003010B10120009001E00020DB
:1036F00000900098012846D165484030006840F0AD
:1037000080506349403108606248006840F440409E
:10371000604908605E48083000685D49083108600B
:103720000846006840F4004008600846006840F41D
:10373000A05008605848091F0860081F006840F042
:103740008070091F086000BF5148006800F00070D9
:103750000028F9D040F20570504908604C48083004
:10376000006820F003004A490831086008460068F4
:1037700040F00200086000BF45480830006800F0D3
:103780000C000828F8D10CBD10B54548006840F47D
:103790007000434908603E48006840F001003C4921
:1037A000086000203A4908310860394800683D49FE
:1037B0000840374908603C48091D0860081F006838
:1037C00020F48020091F0860002031490C31086076
:1037D000FFF76CFF4FF0006031498039086010BD81
:1037E00070B500200022022300240221284D083554
:1037F0002D6805F00C0020B1042806D0082834D12B
:1038000007E02A4D2A4E356033E02A4D284E3560B8
:103810002FE01F4D2D1D2D68C5F380541C4D2D1D0F
:103820002D6805F03F0154B1224DB5FBF1F5184E5E
:10383000361D3668C6F3881605FB06F209E01B4DF7
:10384000B5FBF1F5124E361D3668C6F3881605FB3A
:1038500006F20F4D2D1D2D68C5F301456D1C6B0043
:10386000B2FBF3F5124E356003E0104D104E35609B
:1038700000BF00BF064D08352D68C5F303150E4E79
:10388000705D0B4D2D68C540094E356070BD000060
:10389000003802400070004008544007003C0240DD
:1038A00088ED00E0FFFFF6FE103000240024F40055
:1038B0007C00002000127A008000002070477047D2
:1038C000704770477047754600F02CF8AE4605000B
:1038D0006946534620F00700854618B020B5FDF72D
:1038E000DFF9BDE820404FF000064FF000074FF031
:1038F00000084FF0000B21F00701AC46ACE8C0090E
:10390000ACE8C009ACE8C009ACE8C0098D46704716
:1039100010B50446AFF300802046BDE81040FCF728
:103920007CBC000000487047580100204FF04070F8
:10393000E1EE100A7047000058390008000000202E
:1039400090000000C4010008E83900089000002041
:1039500028070000E0010008C0F9A4B0999282F89D
:1039600080908883C6A1868E0000000000000000C1
:103970000000000000000000010000000200000044
:103980000300000004000000050000000600000025
:103990000700000008000000090000001C000020D3
:1039A0001C0000201C0000201C0000200000000063
:1039B0000000000000010000000000000000000006
:1039C00000000000000001020304010203040607D6
:1039D00008090000007A030A00000000000000004F
:0839E0000102030406070809B7
:040000050800018965
:00000001FF
